{
    "contractName": "Dex",
    "abi": [
        {
            "anonymous": false,
            "inputs": [
                {
                    "indexed": true,
                    "internalType": "address",
                    "name": "previousOwner",
                    "type": "address"
                },
                {
                    "indexed": true,
                    "internalType": "address",
                    "name": "newOwner",
                    "type": "address"
                }
            ],
            "name": "OwnershipTransferred",
            "type": "event"
        },
        {
            "inputs": [
                {
                    "internalType": "bytes32",
                    "name": "_ticker",
                    "type": "bytes32"
                },
                {
                    "internalType": "address",
                    "name": "_tokenAddress",
                    "type": "address"
                }
            ],
            "name": "addToken",
            "outputs": [],
            "stateMutability": "nonpayable",
            "type": "function"
        },
        {
            "inputs": [
                {
                    "internalType": "address",
                    "name": "",
                    "type": "address"
                },
                {
                    "internalType": "bytes32",
                    "name": "",
                    "type": "bytes32"
                }
            ],
            "name": "balances",
            "outputs": [
                {
                    "internalType": "uint256",
                    "name": "",
                    "type": "uint256"
                }
            ],
            "stateMutability": "view",
            "type": "function"
        },
        {
            "inputs": [
                {
                    "internalType": "enum Dex.Side",
                    "name": "_side",
                    "type": "uint8"
                },
                {
                    "internalType": "bytes32",
                    "name": "_ticker",
                    "type": "bytes32"
                },
                {
                    "internalType": "uint256",
                    "name": "_amount",
                    "type": "uint256"
                },
                {
                    "internalType": "uint256",
                    "name": "_price",
                    "type": "uint256"
                }
            ],
            "name": "createLimitOrder",
            "outputs": [],
            "stateMutability": "nonpayable",
            "type": "function"
        },
        {
            "inputs": [
                {
                    "internalType": "enum Dex.Side",
                    "name": "_side",
                    "type": "uint8"
                },
                {
                    "internalType": "bytes32",
                    "name": "_ticker",
                    "type": "bytes32"
                },
                {
                    "internalType": "uint256",
                    "name": "_amount",
                    "type": "uint256"
                }
            ],
            "name": "createMarketOrder",
            "outputs": [],
            "stateMutability": "nonpayable",
            "type": "function"
        },
        {
            "inputs": [
                {
                    "internalType": "uint256",
                    "name": "_amount",
                    "type": "uint256"
                },
                {
                    "internalType": "bytes32",
                    "name": "_ticker",
                    "type": "bytes32"
                }
            ],
            "name": "deposit",
            "outputs": [],
            "stateMutability": "nonpayable",
            "type": "function"
        },
        {
            "inputs": [],
            "name": "depositEth",
            "outputs": [],
            "stateMutability": "payable",
            "type": "function"
        },
        {
            "inputs": [
                {
                    "internalType": "bytes32",
                    "name": "_ticker",
                    "type": "bytes32"
                },
                {
                    "internalType": "enum Dex.Side",
                    "name": "_side",
                    "type": "uint8"
                }
            ],
            "name": "getOrderBook",
            "outputs": [
                {
                    "components": [
                        {
                            "internalType": "uint256",
                            "name": "id",
                            "type": "uint256"
                        },
                        {
                            "internalType": "address",
                            "name": "trader",
                            "type": "address"
                        },
                        {
                            "internalType": "enum Dex.Side",
                            "name": "side",
                            "type": "uint8"
                        },
                        {
                            "internalType": "bytes32",
                            "name": "ticker",
                            "type": "bytes32"
                        },
                        {
                            "internalType": "uint256",
                            "name": "amount",
                            "type": "uint256"
                        },
                        {
                            "internalType": "uint256",
                            "name": "price",
                            "type": "uint256"
                        },
                        {
                            "internalType": "uint256",
                            "name": "filled",
                            "type": "uint256"
                        }
                    ],
                    "internalType": "struct Dex.Order[]",
                    "name": "",
                    "type": "tuple[]"
                }
            ],
            "stateMutability": "view",
            "type": "function"
        },
        {
            "inputs": [],
            "name": "nextOrderId",
            "outputs": [
                {
                    "internalType": "uint256",
                    "name": "",
                    "type": "uint256"
                }
            ],
            "stateMutability": "view",
            "type": "function"
        },
        {
            "inputs": [
                {
                    "internalType": "bytes32",
                    "name": "",
                    "type": "bytes32"
                },
                {
                    "internalType": "uint256",
                    "name": "",
                    "type": "uint256"
                },
                {
                    "internalType": "uint256",
                    "name": "",
                    "type": "uint256"
                }
            ],
            "name": "orderBook",
            "outputs": [
                {
                    "internalType": "uint256",
                    "name": "id",
                    "type": "uint256"
                },
                {
                    "internalType": "address",
                    "name": "trader",
                    "type": "address"
                },
                {
                    "internalType": "enum Dex.Side",
                    "name": "side",
                    "type": "uint8"
                },
                {
                    "internalType": "bytes32",
                    "name": "ticker",
                    "type": "bytes32"
                },
                {
                    "internalType": "uint256",
                    "name": "amount",
                    "type": "uint256"
                },
                {
                    "internalType": "uint256",
                    "name": "price",
                    "type": "uint256"
                },
                {
                    "internalType": "uint256",
                    "name": "filled",
                    "type": "uint256"
                }
            ],
            "stateMutability": "view",
            "type": "function"
        },
        {
            "inputs": [],
            "name": "owner",
            "outputs": [
                {
                    "internalType": "address",
                    "name": "",
                    "type": "address"
                }
            ],
            "stateMutability": "view",
            "type": "function"
        },
        {
            "inputs": [],
            "name": "renounceOwnership",
            "outputs": [],
            "stateMutability": "nonpayable",
            "type": "function"
        },
        {
            "inputs": [
                {
                    "internalType": "uint256",
                    "name": "",
                    "type": "uint256"
                }
            ],
            "name": "tokenList",
            "outputs": [
                {
                    "internalType": "bytes32",
                    "name": "",
                    "type": "bytes32"
                }
            ],
            "stateMutability": "view",
            "type": "function"
        },
        {
            "inputs": [
                {
                    "internalType": "bytes32",
                    "name": "",
                    "type": "bytes32"
                }
            ],
            "name": "tokenMapping",
            "outputs": [
                {
                    "internalType": "bytes32",
                    "name": "ticker",
                    "type": "bytes32"
                },
                {
                    "internalType": "address",
                    "name": "tokenAddress",
                    "type": "address"
                }
            ],
            "stateMutability": "view",
            "type": "function"
        },
        {
            "inputs": [
                {
                    "internalType": "address",
                    "name": "newOwner",
                    "type": "address"
                }
            ],
            "name": "transferOwnership",
            "outputs": [],
            "stateMutability": "nonpayable",
            "type": "function"
        },
        {
            "inputs": [
                {
                    "internalType": "uint256",
                    "name": "_amount",
                    "type": "uint256"
                },
                {
                    "internalType": "bytes32",
                    "name": "_ticker",
                    "type": "bytes32"
                }
            ],
            "name": "withdraw",
            "outputs": [],
            "stateMutability": "nonpayable",
            "type": "function"
        },
        {
            "inputs": [
                {
                    "internalType": "uint256",
                    "name": "_amount",
                    "type": "uint256"
                }
            ],
            "name": "withdrawEth",
            "outputs": [],
            "stateMutability": "nonpayable",
            "type": "function"
        }
    ],
    "bytecode": "6080604052600060045534801561001557600080fd5b50600080546001600160a01b031916339081178255604051909182917f8be0079c531659141344cd1fd0a4f28419497f9722a3daafe3b4186f6b6457e0908290a3506121eb806100666000396000f3fe6080604052600436106100f35760003560e01c80639776aacf1161008a578063ba58ea6811610059578063ba58ea68146102d1578063c311d049146102fe578063c9630cb01461031e578063f2fde38b1461033e57600080fd5b80639776aacf1461025157806399ec2f1c146102715780639ead722214610291578063a8d2021a146102b157600080fd5b8063667cb4ba116100c6578063667cb4ba1461019a5780636f3b62f9146101f4578063715018a6146102145780638da5cb5b1461022957600080fd5b80630bb431b6146100f85780631f14df69146101345780632a58b3301461017a578063439370b114610190575b600080fd5b34801561010457600080fd5b50610118610113366004611ef1565b61035e565b60405161012b9796959493929190612096565b60405180910390f35b34801561014057600080fd5b5061016c61014f366004611e3d565b600360209081526000928352604080842090915290825290205481565b60405190815260200161012b565b34801561018657600080fd5b5061016c60045481565b6101986103d4565b005b3480156101a657600080fd5b506101d76101b5366004611e89565b600160208190526000918252604090912080549101546001600160a01b031682565b604080519283526001600160a01b0390911660208301520161012b565b34801561020057600080fd5b5061019861020f366004611f50565b610422565b34801561022057600080fd5b50610198610c4e565b34801561023557600080fd5b506000546040516001600160a01b03909116815260200161012b565b34801561025d57600080fd5b5061019861026c366004611ea2565b610cc2565b34801561027d57600080fd5b5061019861028c366004611f1d565b610d69565b34801561029d57600080fd5b5061016c6102ac366004611e89565b611786565b3480156102bd57600080fd5b506101986102cc366004611f89565b6117a7565b3480156102dd57600080fd5b506102f16102ec366004611ece565b611942565b60405161012b9190611fcd565b34801561030a57600080fd5b50610198610319366004611e89565b611a4d565b34801561032a57600080fd5b50610198610339366004611f89565b611b9d565b34801561034a57600080fd5b50610198610359366004611e22565b611ce2565b6005602052826000526040600020602052816000526040600020818154811061038657600080fd5b60009182526020909120600690910201805460018201546002830154600384015460048501546005909501549397506001600160a01b0383169650600160a01b90920460ff16945092909187565b3360009081526003602090815260408083206208aa8960eb1b84529091529020546103ff9034611dcc565b3360009081526003602090815260408083206208aa8960eb1b8452909152902055565b600084600181111561043657610436612173565b14156104cd576104468282611ddf565b3360009081526003602090815260408083206208aa8960eb1b845290915290205410156104c85760405162461bcd60e51b815260206004820152602560248201527f446f6e2774206861766520656e6f75676820657468657220746f2062757920746044820152646f6b656e7360d81b60648201526084015b60405180910390fd5b610561565b60018460018111156104e1576104e1612173565b1415610561573360009081526003602090815260408083208684529091529020548211156105615760405162461bcd60e51b815260206004820152602760248201527f446f6e2774206861766520656e6f75676820746f6b656e7320616d6f756e74206044820152661d1bc81cd95b1b60ca1b60648201526084016104bf565b60008381526005602052604081208186600181111561058257610582612173565b81526020019081526020016000209050806040518060e001604052806004548152602001336001600160a01b031681526020018760018111156105c7576105c7612173565b81526020808201889052604080830188905260608301879052600060809093018390528454600180820187559584529282902084516006909402019283559083015182850180546001600160a01b031981166001600160a01b03909316928317825592850151949593949390926001600160a81b03191690911790600160a01b90849081111561065957610659612173565b0217905550606082015160028201556080820151600382015560a0820151600482015560c09091015160059091015580546000906106985760006106a6565b81546106a690600190612114565b905060008660018111156106bc576106bc612173565b1415610972575b801561096d57816106d5600183612114565b815481106106e5576106e561219f565b9060005260206000209060060201600401548282815481106107095761070961219f565b906000526020600020906006020160040154111561095b5760008282815481106107355761073561219f565b60009182526020918290206040805160e081018252600693909302909101805483526001808201546001600160a01b038116958501959095529293909291840191600160a01b90910460ff169081111561079157610791612173565b60018111156107a2576107a2612173565b81526002820154602082015260038201546040820152600482015460608201526005909101546080909101529050826107dc600184612114565b815481106107ec576107ec61219f565b906000526020600020906006020183838154811061080c5761080c61219f565b6000918252602090912082546006909202019081556001808301805482840180546001600160a01b031981166001600160a01b039093169283178255925460ff600160a01b91829004169491936001600160a81b0319169092179190849081111561087957610879612173565b021790555060028281015490820155600380830154908201556004808301549082015560059182015491015580836108b2600185612114565b815481106108c2576108c261219f565b6000918252602091829020835160069092020190815590820151600180830180546001600160a01b039093166001600160a01b031984168117825560408601519391926001600160a81b03199092161790600160a01b90849081111561092a5761092a612173565b0217905550606082015160028201556080820151600382015560a0820151600482015560c090910151600590910155505b806109658161212b565b9150506106c3565b610c37565b600186600181111561098657610986612173565b1415610c37575b8015610c37578161099f600183612114565b815481106109af576109af61219f565b9060005260206000209060060201600401548282815481106109d3576109d361219f565b9060005260206000209060060201600401541015610c255760008282815481106109ff576109ff61219f565b60009182526020918290206040805160e081018252600693909302909101805483526001808201546001600160a01b038116958501959095529293909291840191600160a01b90910460ff1690811115610a5b57610a5b612173565b6001811115610a6c57610a6c612173565b8152600282015460208201526003820154604082015260048201546060820152600590910154608090910152905082610aa6600184612114565b81548110610ab657610ab661219f565b9060005260206000209060060201838381548110610ad657610ad661219f565b6000918252602090912082546006909202019081556001808301805482840180546001600160a01b031981166001600160a01b039093169283178255925460ff600160a01b91829004169491936001600160a81b03191690921791908490811115610b4357610b43612173565b02179055506002828101549082015560038083015490820155600480830154908201556005918201549101558083610b7c600185612114565b81548110610b8c57610b8c61219f565b6000918252602091829020835160069092020190815590820151600180830180546001600160a01b039093166001600160a01b031984168117825560408601519391926001600160a81b03199092161790600160a01b908490811115610bf457610bf4612173565b0217905550606082015160028201556080820151600382015560a0820151600482015560c090910151600590910155505b80610c2f8161212b565b91505061098d565b600454610c45906001611dcc565b50505050505050565b6000546001600160a01b03163314610c785760405162461bcd60e51b81526004016104bf90612061565b600080546040516001600160a01b03909116907f8be0079c531659141344cd1fd0a4f28419497f9722a3daafe3b4186f6b6457e0908390a3600080546001600160a01b0319169055565b6000546001600160a01b03163314610cec5760405162461bcd60e51b81526004016104bf90612061565b6040805180820182528381526001600160a01b039283166020808301918252600086815260019182905293842092518355905191810180546001600160a01b031916929094169190911790925560028054928301815590527f405787fa12a823e0f2b7631cc41b3ba8828b3321ca811111fa75cd3aa3bb5ace0155565b6001836001811115610d7d57610d7d612173565b1415610de257336000908152600360209081526040808320858452909152902054811115610de25760405162461bcd60e51b8152602060048201526012602482015271496e7375666669656e742062616c616e636560701b60448201526064016104bf565b600080846001811115610df757610df7612173565b1415610e0557506001610e09565b5060005b6000838152600560209081526040808320848452909152812090805b825481108015610e3457508482105b156113a0576000610e94848381548110610e5057610e5061219f565b906000526020600020906006020160050154858481548110610e7457610e7461219f565b906000526020600020906006020160030154611deb90919063ffffffff16565b9050600086610ea38584611dcc565b1115610eba57610eb38785611deb565b9050610ebd565b50805b610ef381868581548110610ed357610ed361219f565b906000526020600020906006020160050154611dcc90919063ffffffff16565b858481548110610f0557610f0561219f565b6000918252602090912060056006909202010155610f238482611dcc565b93506000610f5d868581548110610f3c57610f3c61219f565b90600052602060002090600602016004015483611ddf90919063ffffffff16565b905060008a6001811115610f7357610f73612173565b141561118d573360009081526003602090815260408083206208aa8960eb1b8452909152902054811115610fa657600080fd5b3360009081526003602090815260408083208c8452909152902054610fcb9083611dcc565b3360009081526003602090815260408083208d8452909152808220929092556208aa8960eb1b81522054610fff9082611deb565b3360009081526003602081815260408084206208aa8960eb1b8552909152822092909255875461107e92859290918a908990811061103f5761103f61219f565b60009182526020808320600160069093020191909101546001600160a01b0316835282810193909352604091820181208e825290925290205490611deb565b600360008887815481106110945761109461219f565b60009182526020808320600160069093020191909101546001600160a01b0316835282810193909352604091820181208d82529092528120919091558654611133918391600391908a90899081106110ee576110ee61219f565b60009182526020808320600160069093020191909101546001600160a01b0316835282810193909352604091820181206208aa8960eb1b825290925290205490611dcc565b600360008887815481106111495761114961219f565b60009182526020808320600160069093020191909101546001600160a01b0316835282810193909352604091820181206208aa8960eb1b825290925290205561138a565b60018a60018111156111a1576111a1612173565b141561138a573360009081526003602090815260408083208c84529091529020546111cc9083611deb565b3360009081526003602090815260408083208d8452909152808220929092556208aa8960eb1b815220546112009082611dcc565b3360009081526003602081815260408084206208aa8960eb1b8552909152822092909255875461127f92859290918a90899081106112405761124061219f565b60009182526020808320600160069093020191909101546001600160a01b0316835282810193909352604091820181208e825290925290205490611dcc565b600360008887815481106112955761129561219f565b60009182526020808320600160069093020191909101546001600160a01b0316835282810193909352604091820181208d82529092528120919091558654611334918391600391908a90899081106112ef576112ef61219f565b60009182526020808320600160069093020191909101546001600160a01b0316835282810193909352604091820181206208aa8960eb1b825290925290205490611deb565b6003600088878154811061134a5761134a61219f565b60009182526020808320600160069093020191909101546001600160a01b0316835282810193909352604091820181206208aa8960eb1b82529092529020555b505050808061139890612142565b915050610e25565b5060008060005b8454811080156113b5575082155b15611427578481815481106113cc576113cc61219f565b9060005260206000209060060201600301548582815481106113f0576113f061219f565b906000526020600020906006020160050154141561141057809150611415565b600192505b8061141f81612142565b9150506113a7565b506000611435826001611dcc565b905060005b855460019061144a908590612114565b6114549190612114565b8110156115465785828154811061146d5761146d61219f565b906000526020600020906006020186828154811061148d5761148d61219f565b6000918252602090912082546006909202019081556001808301805482840180546001600160a01b031981166001600160a01b039093169283178255925460ff600160a01b91829004169491936001600160a81b031916909217919084908111156114fa576114fa612173565b02179055506002828101549082015560038083015490820155600480830154908201556005918201549101558161153081612142565b925050808061153e90612142565b91505061143a565b5060005b6115558360016120dd565b8110156115c3578580548061156c5761156c612189565b6000828152602081206006600019909301928302018181556001810180546001600160a81b0319169055600281018290556003810182905560048101829055600501559055806115bb81612142565b91505061154a565b505b84541580159061161c5750846000815481106115e3576115e361219f565b906000526020600020906006020160030154856000815481106116085761160861219f565b906000526020600020906006020160050154145b1561177b5760005b855461163290600190612114565b81101561172057856116458260016120dd565b815481106116555761165561219f565b90600052602060002090600602018682815481106116755761167561219f565b6000918252602090912082546006909202019081556001808301805482840180546001600160a01b031981166001600160a01b039093169283178255925460ff600160a01b91829004169491936001600160a81b031916909217919084908111156116e2576116e2612173565b02179055506002828101549082015560038083015490820155600480830154908201556005918201549101558061171881612142565b915050611624565b508480548061173157611731612189565b6000828152602081206006600019909301928302018181556001810180546001600160a81b03191690556002810182905560038101829055600481018290556005015590556115c5565b505050505050505050565b6002818154811061179657600080fd5b600091825260209091200154905081565b6000818152600160208190526040909120015481906001600160a01b03166118085760405162461bcd60e51b8152602060048201526014602482015273151bdad95b88191bd95cc81b9bdd08195e1a5cdd60621b60448201526064016104bf565b33600090815260036020908152604080832085845290915290205483111561186b5760405162461bcd60e51b815260206004820152601660248201527510985b185b98d9481b9bdd081cdd59999a58da595b9d60521b60448201526064016104bf565b3360009081526003602090815260408083208584529091529020546118909084611deb565b336000818152600360209081526040808320878452825280832094909455600190819052908390200154915163a9059cbb60e01b81526004810191909152602481018590526001600160a01b039091169063a9059cbb90604401602060405180830381600087803b15801561190457600080fd5b505af1158015611918573d6000803e3d6000fd5b505050506040513d601f19601f8201168201806040525081019061193c9190611e67565b50505050565b600082815260056020526040812060609183600181111561196557611965612173565b8152602001908152602001600020805480602002602001604051908101604052809291908181526020016000905b82821015611a415760008481526020908190206040805160e08101825260068602909201805483526001808201546001600160a01b038116958501959095529293909291840191600160a01b90910460ff16908111156119f5576119f5612173565b6001811115611a0657611a06612173565b815260200160028201548152602001600382015481526020016004820154815260200160058201548152505081526020019060010190611993565b50505050905092915050565b3360009081526003602090815260408083206208aa8960eb1b8452909152902054811115611ab25760405162461bcd60e51b8152602060048201526012602482015271496e7375666669656e742062616c616e636560701b60448201526064016104bf565b3360009081526003602090815260408083206208aa8960eb1b8452909152902054611add9082611deb565b3360008181526003602090815260408083206208aa8960eb1b845290915280822093909355915183908381818185875af1925050503d8060008114611b3e576040519150601f19603f3d011682016040523d82523d6000602084013e611b43565b606091505b5050905080611b99573360009081526003602090815260408083206208aa8960eb1b8452909152902054611b779083611dcc565b3360009081526003602090815260408083206208aa8960eb1b84529091529020555b5050565b6000818152600160208190526040909120015481906001600160a01b0316611bfe5760405162461bcd60e51b8152602060048201526014602482015273151bdad95b88191bd95cc81b9bdd08195e1a5cdd60621b60448201526064016104bf565b600082815260016020819052604091829020015490516323b872dd60e01b8152336004820152306024820152604481018590526001600160a01b03909116906323b872dd90606401602060405180830381600087803b158015611c6057600080fd5b505af1158015611c74573d6000803e3d6000fd5b505050506040513d601f19601f82011682018060405250810190611c989190611e67565b50336000908152600360209081526040808320858452909152902054611cbe9084611dcc565b33600090815260036020908152604080832095835294905292909220919091555050565b6000546001600160a01b03163314611d0c5760405162461bcd60e51b81526004016104bf90612061565b6001600160a01b038116611d715760405162461bcd60e51b815260206004820152602660248201527f4f776e61626c653a206e6577206f776e657220697320746865207a65726f206160448201526564647265737360d01b60648201526084016104bf565b600080546040516001600160a01b03808516939216917f8be0079c531659141344cd1fd0a4f28419497f9722a3daafe3b4186f6b6457e091a3600080546001600160a01b0319166001600160a01b0392909216919091179055565b6000611dd882846120dd565b9392505050565b6000611dd882846120f5565b6000611dd88284612114565b80356001600160a01b0381168114611e0e57600080fd5b919050565b803560028110611e0e57600080fd5b600060208284031215611e3457600080fd5b611dd882611df7565b60008060408385031215611e5057600080fd5b611e5983611df7565b946020939093013593505050565b600060208284031215611e7957600080fd5b81518015158114611dd857600080fd5b600060208284031215611e9b57600080fd5b5035919050565b60008060408385031215611eb557600080fd5b82359150611ec560208401611df7565b90509250929050565b60008060408385031215611ee157600080fd5b82359150611ec560208401611e13565b600080600060608486031215611f0657600080fd5b505081359360208301359350604090920135919050565b600080600060608486031215611f3257600080fd5b611f3b84611e13565b95602085013595506040909401359392505050565b60008060008060808587031215611f6657600080fd5b611f6f85611e13565b966020860135965060408601359560600135945092505050565b60008060408385031215611f9c57600080fd5b50508035926020909101359150565b60028110611fc957634e487b7160e01b600052602160045260246000fd5b9052565b602080825282518282018190526000919060409081850190868401855b8281101561205457815180518552868101516001600160a01b0316878601528581015161201987870182611fab565b50606081810151908601526080808201519086015260a0808201519086015260c0908101519085015260e09093019290850190600101611fea565b5091979650505050505050565b6020808252818101527f4f776e61626c653a2063616c6c6572206973206e6f7420746865206f776e6572604082015260600190565b8781526001600160a01b038716602082015260e081016120b96040830188611fab565b8560608301528460808301528360a08301528260c083015298975050505050505050565b600082198211156120f0576120f061215d565b500190565b600081600019048311821515161561210f5761210f61215d565b500290565b6000828210156121265761212661215d565b500390565b60008161213a5761213a61215d565b506000190190565b60006000198214156121565761215661215d565b5060010190565b634e487b7160e01b600052601160045260246000fd5b634e487b7160e01b600052602160045260246000fd5b634e487b7160e01b600052603160045260246000fd5b634e487b7160e01b600052603260045260246000fdfea2646970667358221220794b93c9dc8677ecfe46a235af9d74c85fbf662b6eeb018806ca31a2eff555c364736f6c63430008060033",
    "sourcePath": "c:/Users/Lenovo/OneDrive/Dokumentai/IT/Others/Blockchain/decentralized-exchange/contracts/Dex.sol",
    "compiler": {
        "name": "solc",
        "version": "0.8.6+commit.11564f7e"
    },
    "functionHashes": {
        "addToken(bytes32,address)": "9776aacf",
        "balances(address,bytes32)": "1f14df69",
        "createLimitOrder(uint8,bytes32,uint256,uint256)": "6f3b62f9",
        "createMarketOrder(uint8,bytes32,uint256)": "99ec2f1c",
        "deposit(uint256,bytes32)": "c9630cb0",
        "depositEth()": "439370b1",
        "getOrderBook(bytes32,uint8)": "ba58ea68",
        "nextOrderId()": "2a58b330",
        "orderBook(bytes32,uint256,uint256)": "0bb431b6",
        "owner()": "8da5cb5b",
        "renounceOwnership()": "715018a6",
        "tokenList(uint256)": "9ead7222",
        "tokenMapping(bytes32)": "667cb4ba",
        "transferOwnership(address)": "f2fde38b",
        "withdraw(uint256,bytes32)": "a8d2021a",
        "withdrawEth(uint256)": "c311d049"
    },
    "gasEstimates": {
        "creation": {
            "codeDepositCost": "1736600",
            "executionCost": "32606",
            "totalCost": "1769206"
        },
        "external": {
            "addToken(bytes32,address)": "95361",
            "balances(address,bytes32)": "2658",
            "createLimitOrder(uint8,bytes32,uint256,uint256)": "infinite",
            "createMarketOrder(uint8,bytes32,uint256)": "infinite",
            "deposit(uint256,bytes32)": "infinite",
            "depositEth()": "24822",
            "getOrderBook(bytes32,uint8)": "infinite",
            "nextOrderId()": "2363",
            "orderBook(bytes32,uint256,uint256)": "15642",
            "owner()": "2390",
            "renounceOwnership()": "30232",
            "tokenList(uint256)": "4642",
            "tokenMapping(bytes32)": "4636",
            "transferOwnership(address)": "30488",
            "withdraw(uint256,bytes32)": "infinite",
            "withdrawEth(uint256)": "infinite"
        }
    }
}