{
    "contractName": "Wallet",
    "abi": [
        {
            "anonymous": false,
            "inputs": [
                {
                    "indexed": true,
                    "internalType": "address",
                    "name": "previousOwner",
                    "type": "address"
                },
                {
                    "indexed": true,
                    "internalType": "address",
                    "name": "newOwner",
                    "type": "address"
                }
            ],
            "name": "OwnershipTransferred",
            "type": "event"
        },
        {
            "inputs": [
                {
                    "internalType": "bytes32",
                    "name": "_ticker",
                    "type": "bytes32"
                },
                {
                    "internalType": "address",
                    "name": "_tokenAddress",
                    "type": "address"
                }
            ],
            "name": "addToken",
            "outputs": [],
            "stateMutability": "nonpayable",
            "type": "function"
        },
        {
            "inputs": [
                {
                    "internalType": "address",
                    "name": "",
                    "type": "address"
                },
                {
                    "internalType": "bytes32",
                    "name": "",
                    "type": "bytes32"
                }
            ],
            "name": "balances",
            "outputs": [
                {
                    "internalType": "uint256",
                    "name": "",
                    "type": "uint256"
                }
            ],
            "stateMutability": "view",
            "type": "function"
        },
        {
            "inputs": [
                {
                    "internalType": "uint256",
                    "name": "_amount",
                    "type": "uint256"
                },
                {
                    "internalType": "bytes32",
                    "name": "_ticker",
                    "type": "bytes32"
                }
            ],
            "name": "deposit",
            "outputs": [],
            "stateMutability": "nonpayable",
            "type": "function"
        },
        {
            "inputs": [],
            "name": "depositEth",
            "outputs": [],
            "stateMutability": "payable",
            "type": "function"
        },
        {
            "inputs": [],
            "name": "owner",
            "outputs": [
                {
                    "internalType": "address",
                    "name": "",
                    "type": "address"
                }
            ],
            "stateMutability": "view",
            "type": "function"
        },
        {
            "inputs": [],
            "name": "renounceOwnership",
            "outputs": [],
            "stateMutability": "nonpayable",
            "type": "function"
        },
        {
            "inputs": [
                {
                    "internalType": "uint256",
                    "name": "",
                    "type": "uint256"
                }
            ],
            "name": "tokenList",
            "outputs": [
                {
                    "internalType": "bytes32",
                    "name": "",
                    "type": "bytes32"
                }
            ],
            "stateMutability": "view",
            "type": "function"
        },
        {
            "inputs": [
                {
                    "internalType": "bytes32",
                    "name": "",
                    "type": "bytes32"
                }
            ],
            "name": "tokenMapping",
            "outputs": [
                {
                    "internalType": "bytes32",
                    "name": "ticker",
                    "type": "bytes32"
                },
                {
                    "internalType": "address",
                    "name": "tokenAddress",
                    "type": "address"
                }
            ],
            "stateMutability": "view",
            "type": "function"
        },
        {
            "inputs": [
                {
                    "internalType": "address",
                    "name": "newOwner",
                    "type": "address"
                }
            ],
            "name": "transferOwnership",
            "outputs": [],
            "stateMutability": "nonpayable",
            "type": "function"
        },
        {
            "inputs": [
                {
                    "internalType": "uint256",
                    "name": "_amount",
                    "type": "uint256"
                },
                {
                    "internalType": "bytes32",
                    "name": "_ticker",
                    "type": "bytes32"
                }
            ],
            "name": "withdraw",
            "outputs": [],
            "stateMutability": "nonpayable",
            "type": "function"
        },
        {
            "inputs": [
                {
                    "internalType": "uint256",
                    "name": "amount",
                    "type": "uint256"
                }
            ],
            "name": "withdrawEth",
            "outputs": [],
            "stateMutability": "nonpayable",
            "type": "function"
        }
    ],
    "bytecode": "608060405234801561001057600080fd5b50600080546001600160a01b031916339081178255604051909182917f8be0079c531659141344cd1fd0a4f28419497f9722a3daafe3b4186f6b6457e0908290a350610a56806100616000396000f3fe60806040526004361061009c5760003560e01c80639776aacf116100645780639776aacf1461018d5780639ead7222146101ad578063a8d2021a146101cd578063c311d049146101ed578063c9630cb01461020d578063f2fde38b1461022d57600080fd5b80631f14df69146100a1578063439370b1146100ec578063667cb4ba146100f6578063715018a6146101505780638da5cb5b14610165575b600080fd5b3480156100ad57600080fd5b506100d96100bc3660046108f3565b600360209081526000928352604080842090915290825290205481565b6040519081526020015b60405180910390f35b6100f461024d565b005b34801561010257600080fd5b5061013361011136600461093f565b600160208190526000918252604090912080549101546001600160a01b031682565b604080519283526001600160a01b039091166020830152016100e3565b34801561015c57600080fd5b506100f461029b565b34801561017157600080fd5b506000546040516001600160a01b0390911681526020016100e3565b34801561019957600080fd5b506100f46101a8366004610958565b610318565b3480156101b957600080fd5b506100d96101c836600461093f565b6103bf565b3480156101d957600080fd5b506100f46101e8366004610984565b6103e0565b3480156101f957600080fd5b506100f461020836600461093f565b61057b565b34801561021957600080fd5b506100f4610228366004610984565b61066e565b34801561023957600080fd5b506100f46102483660046108d8565b6107b3565b3360009081526003602090815260408083206208aa8960eb1b8452909152902054610278903461089d565b3360009081526003602090815260408083206208aa8960eb1b8452909152902055565b6000546001600160a01b031633146102ce5760405162461bcd60e51b81526004016102c5906109a6565b60405180910390fd5b600080546040516001600160a01b03909116907f8be0079c531659141344cd1fd0a4f28419497f9722a3daafe3b4186f6b6457e0908390a3600080546001600160a01b0319169055565b6000546001600160a01b031633146103425760405162461bcd60e51b81526004016102c5906109a6565b6040805180820182528381526001600160a01b039283166020808301918252600086815260019182905293842092518355905191810180546001600160a01b031916929094169190911790925560028054928301815590527f405787fa12a823e0f2b7631cc41b3ba8828b3321ca811111fa75cd3aa3bb5ace0155565b600281815481106103cf57600080fd5b600091825260209091200154905081565b6000818152600160208190526040909120015481906001600160a01b03166104415760405162461bcd60e51b8152602060048201526014602482015273151bdad95b88191bd95cc81b9bdd08195e1a5cdd60621b60448201526064016102c5565b3360009081526003602090815260408083208584529091529020548311156104a45760405162461bcd60e51b815260206004820152601660248201527510985b185b98d9481b9bdd081cdd59999a58da595b9d60521b60448201526064016102c5565b3360009081526003602090815260408083208584529091529020546104c990846108b0565b336000818152600360209081526040808320878452825280832094909455600190819052908390200154915163a9059cbb60e01b81526004810191909152602481018590526001600160a01b039091169063a9059cbb90604401602060405180830381600087803b15801561053d57600080fd5b505af1158015610551573d6000803e3d6000fd5b505050506040513d601f19601f82011682018060405250810190610575919061091d565b50505050565b3360009081526003602090815260408083206208aa8960eb1b84529091529020548111156105e05760405162461bcd60e51b8152602060048201526012602482015271496e7375666669656e742062616c616e636560701b60448201526064016102c5565b3360009081526003602090815260408083206208aa8960eb1b845290915290205461060b90826108b0565b3360008181526003602090815260408083206208aa8960eb1b8452909152808220939093559151909183919081818185875af1925050503d8060008114610575576040519150601f19603f3d011682016040523d82523d6000602084013e610575565b6000818152600160208190526040909120015481906001600160a01b03166106cf5760405162461bcd60e51b8152602060048201526014602482015273151bdad95b88191bd95cc81b9bdd08195e1a5cdd60621b60448201526064016102c5565b600082815260016020819052604091829020015490516323b872dd60e01b8152336004820152306024820152604481018590526001600160a01b03909116906323b872dd90606401602060405180830381600087803b15801561073157600080fd5b505af1158015610745573d6000803e3d6000fd5b505050506040513d601f19601f82011682018060405250810190610769919061091d565b5033600090815260036020908152604080832085845290915290205461078f908461089d565b33600090815260036020908152604080832095835294905292909220919091555050565b6000546001600160a01b031633146107dd5760405162461bcd60e51b81526004016102c5906109a6565b6001600160a01b0381166108425760405162461bcd60e51b815260206004820152602660248201527f4f776e61626c653a206e6577206f776e657220697320746865207a65726f206160448201526564647265737360d01b60648201526084016102c5565b600080546040516001600160a01b03808516939216917f8be0079c531659141344cd1fd0a4f28419497f9722a3daafe3b4186f6b6457e091a3600080546001600160a01b0319166001600160a01b0392909216919091179055565b60006108a982846109db565b9392505050565b60006108a982846109f3565b80356001600160a01b03811681146108d357600080fd5b919050565b6000602082840312156108ea57600080fd5b6108a9826108bc565b6000806040838503121561090657600080fd5b61090f836108bc565b946020939093013593505050565b60006020828403121561092f57600080fd5b815180151581146108a957600080fd5b60006020828403121561095157600080fd5b5035919050565b6000806040838503121561096b57600080fd5b8235915061097b602084016108bc565b90509250929050565b6000806040838503121561099757600080fd5b50508035926020909101359150565b6020808252818101527f4f776e61626c653a2063616c6c6572206973206e6f7420746865206f776e6572604082015260600190565b600082198211156109ee576109ee610a0a565b500190565b600082821015610a0557610a05610a0a565b500390565b634e487b7160e01b600052601160045260246000fdfea2646970667358221220f892bb12252caca61a80066f800c42acb42813e332160941a673eda6f44f788e64736f6c63430008050033",
    "sourcePath": "c:/Users/Lenovo/OneDrive/Dokumentai/IT/Others/Blockchain/decentralized-exchange/contracts/Wallet.sol",
    "compiler": {
        "name": "solc",
        "version": "0.8.5+commit.a4f2e591"
    },
    "functionHashes": {
        "addToken(bytes32,address)": "9776aacf",
        "balances(address,bytes32)": "1f14df69",
        "deposit(uint256,bytes32)": "c9630cb0",
        "depositEth()": "439370b1",
        "owner()": "8da5cb5b",
        "renounceOwnership()": "715018a6",
        "tokenList(uint256)": "9ead7222",
        "tokenMapping(bytes32)": "667cb4ba",
        "transferOwnership(address)": "f2fde38b",
        "withdraw(uint256,bytes32)": "a8d2021a",
        "withdrawEth(uint256)": "c311d049"
    },
    "gasEstimates": {
        "creation": {
            "codeDepositCost": "529200",
            "executionCost": "26335",
            "totalCost": "555535"
        },
        "external": {
            "addToken(bytes32,address)": "95338",
            "balances(address,bytes32)": "2602",
            "deposit(uint256,bytes32)": "infinite",
            "depositEth()": "24755",
            "owner()": "2390",
            "renounceOwnership()": "30232",
            "tokenList(uint256)": "4586",
            "tokenMapping(bytes32)": "4658",
            "transferOwnership(address)": "30510",
            "withdraw(uint256,bytes32)": "infinite",
            "withdrawEth(uint256)": "infinite"
        }
    }
}