{
  "contractName": "Dex",
  "abi": [
    {
      "anonymous": false,
      "inputs": [
        {
          "indexed": true,
          "internalType": "address",
          "name": "previousOwner",
          "type": "address"
        },
        {
          "indexed": true,
          "internalType": "address",
          "name": "newOwner",
          "type": "address"
        }
      ],
      "name": "OwnershipTransferred",
      "type": "event"
    },
    {
      "inputs": [
        {
          "internalType": "bytes32",
          "name": "_ticker",
          "type": "bytes32"
        },
        {
          "internalType": "address",
          "name": "_tokenAddress",
          "type": "address"
        }
      ],
      "name": "addToken",
      "outputs": [],
      "stateMutability": "nonpayable",
      "type": "function"
    },
    {
      "inputs": [
        {
          "internalType": "address",
          "name": "",
          "type": "address"
        },
        {
          "internalType": "bytes32",
          "name": "",
          "type": "bytes32"
        }
      ],
      "name": "balances",
      "outputs": [
        {
          "internalType": "uint256",
          "name": "",
          "type": "uint256"
        }
      ],
      "stateMutability": "view",
      "type": "function",
      "constant": true
    },
    {
      "inputs": [
        {
          "internalType": "uint256",
          "name": "_amount",
          "type": "uint256"
        },
        {
          "internalType": "bytes32",
          "name": "_ticker",
          "type": "bytes32"
        }
      ],
      "name": "deposit",
      "outputs": [],
      "stateMutability": "nonpayable",
      "type": "function"
    },
    {
      "inputs": [],
      "name": "depositEth",
      "outputs": [],
      "stateMutability": "payable",
      "type": "function",
      "payable": true
    },
    {
      "inputs": [],
      "name": "nextOrderId",
      "outputs": [
        {
          "internalType": "uint256",
          "name": "",
          "type": "uint256"
        }
      ],
      "stateMutability": "view",
      "type": "function",
      "constant": true
    },
    {
      "inputs": [
        {
          "internalType": "bytes32",
          "name": "",
          "type": "bytes32"
        },
        {
          "internalType": "uint256",
          "name": "",
          "type": "uint256"
        },
        {
          "internalType": "uint256",
          "name": "",
          "type": "uint256"
        }
      ],
      "name": "orderBook",
      "outputs": [
        {
          "internalType": "uint256",
          "name": "id",
          "type": "uint256"
        },
        {
          "internalType": "address",
          "name": "trader",
          "type": "address"
        },
        {
          "internalType": "enum Dex.Side",
          "name": "side",
          "type": "uint8"
        },
        {
          "internalType": "bytes32",
          "name": "ticker",
          "type": "bytes32"
        },
        {
          "internalType": "uint256",
          "name": "amount",
          "type": "uint256"
        },
        {
          "internalType": "uint256",
          "name": "price",
          "type": "uint256"
        }
      ],
      "stateMutability": "view",
      "type": "function",
      "constant": true
    },
    {
      "inputs": [],
      "name": "owner",
      "outputs": [
        {
          "internalType": "address",
          "name": "",
          "type": "address"
        }
      ],
      "stateMutability": "view",
      "type": "function",
      "constant": true
    },
    {
      "inputs": [],
      "name": "renounceOwnership",
      "outputs": [],
      "stateMutability": "nonpayable",
      "type": "function"
    },
    {
      "inputs": [
        {
          "internalType": "uint256",
          "name": "",
          "type": "uint256"
        }
      ],
      "name": "tokenList",
      "outputs": [
        {
          "internalType": "bytes32",
          "name": "",
          "type": "bytes32"
        }
      ],
      "stateMutability": "view",
      "type": "function",
      "constant": true
    },
    {
      "inputs": [
        {
          "internalType": "bytes32",
          "name": "",
          "type": "bytes32"
        }
      ],
      "name": "tokenMapping",
      "outputs": [
        {
          "internalType": "bytes32",
          "name": "ticker",
          "type": "bytes32"
        },
        {
          "internalType": "address",
          "name": "tokenAddress",
          "type": "address"
        }
      ],
      "stateMutability": "view",
      "type": "function",
      "constant": true
    },
    {
      "inputs": [
        {
          "internalType": "address",
          "name": "newOwner",
          "type": "address"
        }
      ],
      "name": "transferOwnership",
      "outputs": [],
      "stateMutability": "nonpayable",
      "type": "function"
    },
    {
      "inputs": [
        {
          "internalType": "uint256",
          "name": "_amount",
          "type": "uint256"
        },
        {
          "internalType": "bytes32",
          "name": "_ticker",
          "type": "bytes32"
        }
      ],
      "name": "withdraw",
      "outputs": [],
      "stateMutability": "nonpayable",
      "type": "function"
    },
    {
      "inputs": [
        {
          "internalType": "uint256",
          "name": "_amount",
          "type": "uint256"
        }
      ],
      "name": "withdrawEth",
      "outputs": [],
      "stateMutability": "nonpayable",
      "type": "function"
    },
    {
      "inputs": [
        {
          "internalType": "bytes32",
          "name": "_ticker",
          "type": "bytes32"
        },
        {
          "internalType": "enum Dex.Side",
          "name": "_side",
          "type": "uint8"
        }
      ],
      "name": "getOrderBook",
      "outputs": [
        {
          "components": [
            {
              "internalType": "uint256",
              "name": "id",
              "type": "uint256"
            },
            {
              "internalType": "address",
              "name": "trader",
              "type": "address"
            },
            {
              "internalType": "enum Dex.Side",
              "name": "side",
              "type": "uint8"
            },
            {
              "internalType": "bytes32",
              "name": "ticker",
              "type": "bytes32"
            },
            {
              "internalType": "uint256",
              "name": "amount",
              "type": "uint256"
            },
            {
              "internalType": "uint256",
              "name": "price",
              "type": "uint256"
            }
          ],
          "internalType": "struct Dex.Order[]",
          "name": "",
          "type": "tuple[]"
        }
      ],
      "stateMutability": "view",
      "type": "function",
      "constant": true
    },
    {
      "inputs": [
        {
          "internalType": "enum Dex.Side",
          "name": "_side",
          "type": "uint8"
        },
        {
          "internalType": "bytes32",
          "name": "_ticker",
          "type": "bytes32"
        },
        {
          "internalType": "uint256",
          "name": "_amount",
          "type": "uint256"
        },
        {
          "internalType": "uint256",
          "name": "_price",
          "type": "uint256"
        }
      ],
      "name": "createLimitOrder",
      "outputs": [],
      "stateMutability": "nonpayable",
      "type": "function"
    }
  ],
  "bytecode": "0x6080604052600060045534801561001557600080fd5b5060006100266100c960201b60201c565b9050806000806101000a81548173ffffffffffffffffffffffffffffffffffffffff021916908373ffffffffffffffffffffffffffffffffffffffff1602179055508073ffffffffffffffffffffffffffffffffffffffff16600073ffffffffffffffffffffffffffffffffffffffff167f8be0079c531659141344cd1fd0a4f28419497f9722a3daafe3b4186f6b6457e060405160405180910390a3506100d1565b600033905090565b612a92806100e06000396000f3fe6080604052600436106100e85760003560e01c80638da5cb5b1161008a578063ba58ea6811610059578063ba58ea68146102d9578063c311d04914610316578063c9630cb01461033f578063f2fde38b14610368576100e8565b80638da5cb5b1461021f5780639776aacf1461024a5780639ead722214610273578063a8d2021a146102b0576100e8565b8063439370b1116100c6578063439370b114610197578063667cb4ba146101a15780636f3b62f9146101df578063715018a614610208576100e8565b80630bb431b6146100ed5780631f14df691461012f5780632a58b3301461016c575b600080fd5b3480156100f957600080fd5b50610114600480360381019061010f9190611f99565b610391565b60405161012696959493929190612532565b60405180910390f35b34801561013b57600080fd5b5061015660048036038101906101519190611e7f565b610424565b6040516101639190612517565b60405180910390f35b34801561017857600080fd5b50610181610449565b60405161018e9190612517565b60405180910390f35b61019f61044f565b005b3480156101ad57600080fd5b506101c860048036038101906101c39190611eec565b610548565b6040516101d692919061240e565b60405180910390f35b3480156101eb57600080fd5b5061020660048036038101906102019190611fec565b61058c565b005b34801561021457600080fd5b5061021d610feb565b005b34801561022b57600080fd5b50610234611125565b6040516102419190612356565b60405180910390f35b34801561025657600080fd5b50610271600480360381019061026c9190611f19565b61114e565b005b34801561027f57600080fd5b5061029a60048036038101906102959190612053565b611289565b6040516102a791906123f3565b60405180910390f35b3480156102bc57600080fd5b506102d760048036038101906102d29190612080565b6112ad565b005b3480156102e557600080fd5b5061030060048036038101906102fb9190611f59565b611567565b60405161030d91906123d1565b60405180910390f35b34801561032257600080fd5b5061033d60048036038101906103389190612053565b6116b6565b005b34801561034b57600080fd5b5061036660048036038101906103619190612080565b6119cd565b005b34801561037457600080fd5b5061038f600480360381019061038a9190611e52565b611bf6565b005b600560205282600052604060002060205281600052604060002081815481106103b957600080fd5b906000526020600020906005020160009250925050508060000154908060010160009054906101000a900473ffffffffffffffffffffffffffffffffffffffff16908060010160149054906101000a900460ff16908060020154908060030154908060040154905086565b6003602052816000526040600020602052806000526040600020600091509150505481565b60045481565b6104d234600360003373ffffffffffffffffffffffffffffffffffffffff1673ffffffffffffffffffffffffffffffffffffffff16815260200190815260200160002060007f4554480000000000000000000000000000000000000000000000000000000000815260200190815260200160002054611d9f90919063ffffffff16565b600360003373ffffffffffffffffffffffffffffffffffffffff1673ffffffffffffffffffffffffffffffffffffffff16815260200190815260200160002060007f4554480000000000000000000000000000000000000000000000000000000000815260200190815260200160002081905550565b60016020528060005260406000206000915090508060000154908060010160009054906101000a900473ffffffffffffffffffffffffffffffffffffffff16905082565b600060018111156105a05761059f6127e5565b5b8460018111156105b3576105b26127e5565b5b1415610683576105cc8183611db590919063ffffffff16565b600360003373ffffffffffffffffffffffffffffffffffffffff1673ffffffffffffffffffffffffffffffffffffffff16815260200190815260200160002060007f4554480000000000000000000000000000000000000000000000000000000000815260200190815260200160002054101561067e576040517f08c379a000000000000000000000000000000000000000000000000000000000815260040161067590612477565b60405180910390fd5b610744565b600180811115610696576106956127e5565b5b8460018111156106a9576106a86127e5565b5b14156107435781600360003373ffffffffffffffffffffffffffffffffffffffff1673ffffffffffffffffffffffffffffffffffffffff1681526020019081526020016000206000858152602001908152602001600020541015610742576040517f08c379a0000000000000000000000000000000000000000000000000000000008152600401610739906124b7565b60405180910390fd5b5b5b600060056000858152602001908152602001600020600086600181111561076e5761076d6127e5565b5b81526020019081526020016000209050806040518060c0016040528060045481526020013373ffffffffffffffffffffffffffffffffffffffff1681526020018760018111156107c1576107c06127e5565b5b81526020018681526020018581526020018481525090806001815401808255809150506001900390600052602060002090600502016000909190919091506000820151816000015560208201518160010160006101000a81548173ffffffffffffffffffffffffffffffffffffffff021916908373ffffffffffffffffffffffffffffffffffffffff16021790555060408201518160010160146101000a81548160ff0219169083600181111561087b5761087a6127e5565b5b0217905550606082015181600201556080820151816003015560a082015181600401555050600060018111156108b4576108b36127e5565b5b8560018111156108c7576108c66127e5565b5b1415610c38576000600182805490506108e09190612698565b90505b60008110610c3257816001826108f99190612698565b8154811061090a57610909612814565b5b90600052602060002090600502016004015482828154811061092f5761092e612814565b5b9060005260206000209060050201600401541115610c1f57600082828154811061095c5761095b612814565b5b90600052602060002090600502016040518060c0016040529081600082015481526020016001820160009054906101000a900473ffffffffffffffffffffffffffffffffffffffff1673ffffffffffffffffffffffffffffffffffffffff1673ffffffffffffffffffffffffffffffffffffffff1681526020016001820160149054906101000a900460ff1660018111156109fa576109f96127e5565b5b6001811115610a0c57610a0b6127e5565b5b81526020016002820154815260200160038201548152602001600482015481525050905082600183610a3e9190612698565b81548110610a4f57610a4e612814565b5b9060005260206000209060050201838381548110610a7057610a6f612814565b5b9060005260206000209060050201600082015481600001556001820160009054906101000a900473ffffffffffffffffffffffffffffffffffffffff168160010160006101000a81548173ffffffffffffffffffffffffffffffffffffffff021916908373ffffffffffffffffffffffffffffffffffffffff1602179055506001820160149054906101000a900460ff168160010160146101000a81548160ff02191690836001811115610b2757610b266127e5565b5b02179055506002820154816002015560038201548160030155600482015481600401559050508083600184610b5c9190612698565b81548110610b6d57610b6c612814565b5b90600052602060002090600502016000820151816000015560208201518160010160006101000a81548173ffffffffffffffffffffffffffffffffffffffff021916908373ffffffffffffffffffffffffffffffffffffffff16021790555060408201518160010160146101000a81548160ff02191690836001811115610bf757610bf66127e5565b5b0217905550606082015181600201556080820151816003015560a08201518160040155905050505b8080610c2a90612743565b9150506108e3565b50610fcc565b600180811115610c4b57610c4a6127e5565b5b856001811115610c5e57610c5d6127e5565b5b1415610fcb57600060018280549050610c779190612698565b90505b60008110610fc95781600182610c909190612698565b81548110610ca157610ca0612814565b5b906000526020600020906005020160040154828281548110610cc657610cc5612814565b5b9060005260206000209060050201600401541015610fb6576000828281548110610cf357610cf2612814565b5b90600052602060002090600502016040518060c0016040529081600082015481526020016001820160009054906101000a900473ffffffffffffffffffffffffffffffffffffffff1673ffffffffffffffffffffffffffffffffffffffff1673ffffffffffffffffffffffffffffffffffffffff1681526020016001820160149054906101000a900460ff166001811115610d9157610d906127e5565b5b6001811115610da357610da26127e5565b5b81526020016002820154815260200160038201548152602001600482015481525050905082600183610dd59190612698565b81548110610de657610de5612814565b5b9060005260206000209060050201838381548110610e0757610e06612814565b5b9060005260206000209060050201600082015481600001556001820160009054906101000a900473ffffffffffffffffffffffffffffffffffffffff168160010160006101000a81548173ffffffffffffffffffffffffffffffffffffffff021916908373ffffffffffffffffffffffffffffffffffffffff1602179055506001820160149054906101000a900460ff168160010160146101000a81548160ff02191690836001811115610ebe57610ebd6127e5565b5b02179055506002820154816002015560038201548160030155600482015481600401559050508083600184610ef39190612698565b81548110610f0457610f03612814565b5b90600052602060002090600502016000820151816000015560208201518160010160006101000a81548173ffffffffffffffffffffffffffffffffffffffff021916908373ffffffffffffffffffffffffffffffffffffffff16021790555060408201518160010160146101000a81548160ff02191690836001811115610f8e57610f8d6127e5565b5b0217905550606082015181600201556080820151816003015560a08201518160040155905050505b8080610fc190612743565b915050610c7a565b505b5b60046000815480929190610fdf9061276d565b91905055505050505050565b610ff3611dcb565b73ffffffffffffffffffffffffffffffffffffffff16611011611125565b73ffffffffffffffffffffffffffffffffffffffff1614611067576040517f08c379a000000000000000000000000000000000000000000000000000000000815260040161105e906124d7565b60405180910390fd5b600073ffffffffffffffffffffffffffffffffffffffff1660008054906101000a900473ffffffffffffffffffffffffffffffffffffffff1673ffffffffffffffffffffffffffffffffffffffff167f8be0079c531659141344cd1fd0a4f28419497f9722a3daafe3b4186f6b6457e060405160405180910390a360008060006101000a81548173ffffffffffffffffffffffffffffffffffffffff021916908373ffffffffffffffffffffffffffffffffffffffff160217905550565b60008060009054906101000a900473ffffffffffffffffffffffffffffffffffffffff16905090565b611156611dcb565b73ffffffffffffffffffffffffffffffffffffffff16611174611125565b73ffffffffffffffffffffffffffffffffffffffff16146111ca576040517f08c379a00000000000000000000000000000000000000000000000000000000081526004016111c1906124d7565b60405180910390fd5b60405180604001604052808381526020018273ffffffffffffffffffffffffffffffffffffffff16815250600160008481526020019081526020016000206000820151816000015560208201518160010160006101000a81548173ffffffffffffffffffffffffffffffffffffffff021916908373ffffffffffffffffffffffffffffffffffffffff16021790555090505060028290806001815401808255809150506001900390600052602060002001600090919091909150555050565b6002818154811061129957600080fd5b906000526020600020016000915090505481565b80600073ffffffffffffffffffffffffffffffffffffffff166001600083815260200190815260200160002060010160009054906101000a900473ffffffffffffffffffffffffffffffffffffffff1673ffffffffffffffffffffffffffffffffffffffff161415611354576040517f08c379a000000000000000000000000000000000000000000000000000000000815260040161134b90612497565b60405180910390fd5b82600360003373ffffffffffffffffffffffffffffffffffffffff1673ffffffffffffffffffffffffffffffffffffffff16815260200190815260200160002060008481526020019081526020016000205410156113e7576040517f08c379a00000000000000000000000000000000000000000000000000000000081526004016113de906124f7565b60405180910390fd5b61144a83600360003373ffffffffffffffffffffffffffffffffffffffff1673ffffffffffffffffffffffffffffffffffffffff168152602001908152602001600020600085815260200190815260200160002054611dd390919063ffffffff16565b600360003373ffffffffffffffffffffffffffffffffffffffff1673ffffffffffffffffffffffffffffffffffffffff1681526020019081526020016000206000848152602001908152602001600020819055506001600083815260200190815260200160002060010160009054906101000a900473ffffffffffffffffffffffffffffffffffffffff1673ffffffffffffffffffffffffffffffffffffffff1663a9059cbb33856040518363ffffffff1660e01b815260040161150f9291906123a8565b602060405180830381600087803b15801561152957600080fd5b505af115801561153d573d6000803e3d6000fd5b505050506040513d601f19601f820116820180604052508101906115619190611ebf565b50505050565b6060600560008481526020019081526020016000206000836001811115611591576115906127e5565b5b8152602001908152602001600020805480602002602001604051908101604052809291908181526020016000905b828210156116aa57838290600052602060002090600502016040518060c0016040529081600082015481526020016001820160009054906101000a900473ffffffffffffffffffffffffffffffffffffffff1673ffffffffffffffffffffffffffffffffffffffff1673ffffffffffffffffffffffffffffffffffffffff1681526020016001820160149054906101000a900460ff166001811115611667576116666127e5565b5b6001811115611679576116786127e5565b5b81526020016002820154815260200160038201548152602001600482015481525050815260200190600101906115bf565b50505050905092915050565b80600360003373ffffffffffffffffffffffffffffffffffffffff1673ffffffffffffffffffffffffffffffffffffffff16815260200190815260200160002060007f45544800000000000000000000000000000000000000000000000000000000008152602001908152602001600020541015611769576040517f08c379a000000000000000000000000000000000000000000000000000000000815260040161176090612457565b60405180910390fd5b6117ec81600360003373ffffffffffffffffffffffffffffffffffffffff1673ffffffffffffffffffffffffffffffffffffffff16815260200190815260200160002060007f4554480000000000000000000000000000000000000000000000000000000000815260200190815260200160002054611dd390919063ffffffff16565b600360003373ffffffffffffffffffffffffffffffffffffffff1673ffffffffffffffffffffffffffffffffffffffff16815260200190815260200160002060007f455448000000000000000000000000000000000000000000000000000000000081526020019081526020016000208190555060003373ffffffffffffffffffffffffffffffffffffffff168260405161188690612341565b60006040518083038185875af1925050503d80600081146118c3576040519150601f19603f3d011682016040523d82523d6000602084013e6118c8565b606091505b50509050806119c95761195482600360003373ffffffffffffffffffffffffffffffffffffffff1673ffffffffffffffffffffffffffffffffffffffff16815260200190815260200160002060007f4554480000000000000000000000000000000000000000000000000000000000815260200190815260200160002054611d9f90919063ffffffff16565b600360003373ffffffffffffffffffffffffffffffffffffffff1673ffffffffffffffffffffffffffffffffffffffff16815260200190815260200160002060007f45544800000000000000000000000000000000000000000000000000000000008152602001908152602001600020819055505b5050565b80600073ffffffffffffffffffffffffffffffffffffffff166001600083815260200190815260200160002060010160009054906101000a900473ffffffffffffffffffffffffffffffffffffffff1673ffffffffffffffffffffffffffffffffffffffff161415611a74576040517f08c379a0000000000000000000000000000000000000000000000000000000008152600401611a6b90612497565b60405180910390fd5b6001600083815260200190815260200160002060010160009054906101000a900473ffffffffffffffffffffffffffffffffffffffff1673ffffffffffffffffffffffffffffffffffffffff166323b872dd3330866040518463ffffffff1660e01b8152600401611ae793929190612371565b602060405180830381600087803b158015611b0157600080fd5b505af1158015611b15573d6000803e3d6000fd5b505050506040513d601f19601f82011682018060405250810190611b399190611ebf565b50611b9d83600360003373ffffffffffffffffffffffffffffffffffffffff1673ffffffffffffffffffffffffffffffffffffffff168152602001908152602001600020600085815260200190815260200160002054611d9f90919063ffffffff16565b600360003373ffffffffffffffffffffffffffffffffffffffff1673ffffffffffffffffffffffffffffffffffffffff168152602001908152602001600020600084815260200190815260200160002081905550505050565b611bfe611dcb565b73ffffffffffffffffffffffffffffffffffffffff16611c1c611125565b73ffffffffffffffffffffffffffffffffffffffff1614611c72576040517f08c379a0000000000000000000000000000000000000000000000000000000008152600401611c69906124d7565b60405180910390fd5b600073ffffffffffffffffffffffffffffffffffffffff168173ffffffffffffffffffffffffffffffffffffffff161415611ce2576040517f08c379a0000000000000000000000000000000000000000000000000000000008152600401611cd990612437565b60405180910390fd5b8073ffffffffffffffffffffffffffffffffffffffff1660008054906101000a900473ffffffffffffffffffffffffffffffffffffffff1673ffffffffffffffffffffffffffffffffffffffff167f8be0079c531659141344cd1fd0a4f28419497f9722a3daafe3b4186f6b6457e060405160405180910390a3806000806101000a81548173ffffffffffffffffffffffffffffffffffffffff021916908373ffffffffffffffffffffffffffffffffffffffff16021790555050565b60008183611dad91906125e8565b905092915050565b60008183611dc3919061263e565b905092915050565b600033905090565b60008183611de19190612698565b905092915050565b600081359050611df8816129f0565b92915050565b600081519050611e0d81612a07565b92915050565b600081359050611e2281612a1e565b92915050565b600081359050611e3781612a35565b92915050565b600081359050611e4c81612a45565b92915050565b600060208284031215611e6857611e67612843565b5b6000611e7684828501611de9565b91505092915050565b60008060408385031215611e9657611e95612843565b5b6000611ea485828601611de9565b9250506020611eb585828601611e13565b9150509250929050565b600060208284031215611ed557611ed4612843565b5b6000611ee384828501611dfe565b91505092915050565b600060208284031215611f0257611f01612843565b5b6000611f1084828501611e13565b91505092915050565b60008060408385031215611f3057611f2f612843565b5b6000611f3e85828601611e13565b9250506020611f4f85828601611de9565b9150509250929050565b60008060408385031215611f7057611f6f612843565b5b6000611f7e85828601611e13565b9250506020611f8f85828601611e28565b9150509250929050565b600080600060608486031215611fb257611fb1612843565b5b6000611fc086828701611e13565b9350506020611fd186828701611e3d565b9250506040611fe286828701611e3d565b9150509250925092565b6000806000806080858703121561200657612005612843565b5b600061201487828801611e28565b945050602061202587828801611e13565b935050604061203687828801611e3d565b925050606061204787828801611e3d565b91505092959194509250565b60006020828403121561206957612068612843565b5b600061207784828501611e3d565b91505092915050565b6000806040838503121561209757612096612843565b5b60006120a585828601611e3d565b92505060206120b685828601611e13565b9150509250929050565b60006120cc83836122a8565b60c08301905092915050565b6120e1816126cc565b82525050565b6120f0816126cc565b82525050565b6000612101826125a3565b61210b81856125bb565b935061211683612593565b8060005b8381101561214757815161212e88826120c0565b9750612139836125ae565b92505060018101905061211a565b5085935050505092915050565b61215d816126ea565b82525050565b61216c816126ea565b82525050565b61217b81612731565b82525050565b61218a81612731565b82525050565b600061219d6026836125d7565b91506121a882612848565b604082019050919050565b60006121c06012836125d7565b91506121cb82612897565b602082019050919050565b60006121e36025836125d7565b91506121ee826128c0565b604082019050919050565b60006122066014836125d7565b91506122118261290f565b602082019050919050565b60006122296027836125d7565b915061223482612938565b604082019050919050565b600061224c6020836125d7565b915061225782612987565b602082019050919050565b600061226f6016836125d7565b915061227a826129b0565b602082019050919050565b60006122926000836125cc565b915061229d826129d9565b600082019050919050565b60c0820160008201516122be6000850182612323565b5060208201516122d160208501826120d8565b5060408201516122e46040850182612172565b5060608201516122f76060850182612154565b50608082015161230a6080850182612323565b5060a082015161231d60a0850182612323565b50505050565b61232c81612727565b82525050565b61233b81612727565b82525050565b600061234c82612285565b9150819050919050565b600060208201905061236b60008301846120e7565b92915050565b600060608201905061238660008301866120e7565b61239360208301856120e7565b6123a06040830184612332565b949350505050565b60006040820190506123bd60008301856120e7565b6123ca6020830184612332565b9392505050565b600060208201905081810360008301526123eb81846120f6565b905092915050565b60006020820190506124086000830184612163565b92915050565b60006040820190506124236000830185612163565b61243060208301846120e7565b9392505050565b6000602082019050818103600083015261245081612190565b9050919050565b60006020820190508181036000830152612470816121b3565b9050919050565b60006020820190508181036000830152612490816121d6565b9050919050565b600060208201905081810360008301526124b0816121f9565b9050919050565b600060208201905081810360008301526124d08161221c565b9050919050565b600060208201905081810360008301526124f08161223f565b9050919050565b6000602082019050818103600083015261251081612262565b9050919050565b600060208201905061252c6000830184612332565b92915050565b600060c0820190506125476000830189612332565b61255460208301886120e7565b6125616040830187612181565b61256e6060830186612163565b61257b6080830185612332565b61258860a0830184612332565b979650505050505050565b6000819050602082019050919050565b600081519050919050565b6000602082019050919050565b600082825260208201905092915050565b600081905092915050565b600082825260208201905092915050565b60006125f382612727565b91506125fe83612727565b9250827fffffffffffffffffffffffffffffffffffffffffffffffffffffffffffffffff03821115612633576126326127b6565b5b828201905092915050565b600061264982612727565b915061265483612727565b9250817fffffffffffffffffffffffffffffffffffffffffffffffffffffffffffffffff048311821515161561268d5761268c6127b6565b5b828202905092915050565b60006126a382612727565b91506126ae83612727565b9250828210156126c1576126c06127b6565b5b828203905092915050565b60006126d782612707565b9050919050565b60008115159050919050565b6000819050919050565b6000819050612702826129dc565b919050565b600073ffffffffffffffffffffffffffffffffffffffff82169050919050565b6000819050919050565b600061273c826126f4565b9050919050565b600061274e82612727565b91506000821415612762576127616127b6565b5b600182039050919050565b600061277882612727565b91507fffffffffffffffffffffffffffffffffffffffffffffffffffffffffffffffff8214156127ab576127aa6127b6565b5b600182019050919050565b7f4e487b7100000000000000000000000000000000000000000000000000000000600052601160045260246000fd5b7f4e487b7100000000000000000000000000000000000000000000000000000000600052602160045260246000fd5b7f4e487b7100000000000000000000000000000000000000000000000000000000600052603260045260246000fd5b600080fd5b7f4f776e61626c653a206e6577206f776e657220697320746865207a65726f206160008201527f6464726573730000000000000000000000000000000000000000000000000000602082015250565b7f496e7375666669656e742062616c616e63650000000000000000000000000000600082015250565b7f446f6e2774206861766520656e6f75676820657468657220746f20627579207460008201527f6f6b656e73000000000000000000000000000000000000000000000000000000602082015250565b7f546f6b656e20646f6573206e6f74206578697374000000000000000000000000600082015250565b7f446f6e2774206861766520656e6f75676820746f6b656e7320616d6f756e742060008201527f746f2073656c6c00000000000000000000000000000000000000000000000000602082015250565b7f4f776e61626c653a2063616c6c6572206973206e6f7420746865206f776e6572600082015250565b7f42616c616e6365206e6f742073756666696369656e7400000000000000000000600082015250565b50565b600281106129ed576129ec6127e5565b5b50565b6129f9816126cc565b8114612a0457600080fd5b50565b612a10816126de565b8114612a1b57600080fd5b50565b612a27816126ea565b8114612a3257600080fd5b50565b60028110612a4257600080fd5b50565b612a4e81612727565b8114612a5957600080fd5b5056fea2646970667358221220d8138813b11dbd5c36e817d4004180f2eef635f26d7babd2b199ef502b174a1c64736f6c63430008050033",
  "immutableReferences": {},
  "source": "// SPDX-License-Identifier: MIT\r\npragma solidity ^0.8.0;\r\npragma experimental ABIEncoderV2;\r\n\r\nimport \"./Wallet.sol\";\r\n\r\ncontract Dex is Wallet {\r\n\r\n\tusing SafeMath for uint256;\r\n\r\n\tenum Side {\r\n\t\tBUY,   // 0\r\n\t\tSELL   // 1\r\n\t}\r\n\r\n\tstruct Order {\r\n\t\tuint id;\r\n\t\taddress trader;\r\n\t\tSide side;\r\n\t\tbytes32 ticker;\r\n\t\tuint amount;\r\n\t\tuint price;\r\n\t}\r\n\r\n\tuint public nextOrderId = 0;\r\n\tmapping(bytes32 => mapping(uint => Order[])) public orderBook;\r\n\r\n\tfunction getOrderBook(bytes32 _ticker, Side _side) view public returns(Order[] memory) {\r\n\t\treturn orderBook[_ticker][uint(_side)];\r\n\t}\r\n\r\n\tfunction createLimitOrder(Side _side, bytes32 _ticker, uint _amount, uint _price) public {\r\n\t\tif (_side == Side.BUY) {\r\n\t\t\trequire(balances[msg.sender][\"ETH\"] >= _amount.mul(_price), \"Don't have enough ether to buy tokens\");\r\n\t\t} else if (_side == Side.SELL) {\r\n\t\t\trequire(balances[msg.sender][_ticker] >= _amount, \"Don't have enough tokens amount to sell\");\r\n\t\t}\r\n\r\n\t\tOrder[] storage orders = orderBook[_ticker][uint(_side)]; // Not a copy, but a referece\r\n\t\torders.push(\r\n\t\t\tOrder(nextOrderId, msg.sender, _side, _ticker, _amount, _price)\r\n\t\t);\r\n\r\n\r\n\t\t// Bubble sorting\r\n\t\tif (_side == Side.BUY) {\r\n\t\t\tfor (uint i = orders.length-1; i >= 0; i--) {\r\n\t\t\t\tif (orders[i].price > orders[i-1].price) {\r\n\t\t\t\t\tOrder memory temp = orders[i];\r\n\t\t\t\t\torders[i] = orders[i-1];\r\n\t\t\t\t\torders[i-1] = temp;\r\n\t\t\t\t}\r\n\t\t\t}\r\n\t\t} else if (_side == Side.SELL) {\r\n\t\t\tfor (uint i = orders.length-1; i >= 0; i--) {\r\n\t\t\t\tif (orders[i].price < orders[i-1].price) {\r\n\t\t\t\t\tOrder memory temp = orders[i];\r\n\t\t\t\t\torders[i] = orders[i-1];\r\n\t\t\t\t\torders[i-1] = temp;\r\n\t\t\t\t}\r\n\t\t\t}\r\n\t\t}\r\n\r\n\t\tnextOrderId++;\r\n\t}\r\n\t\r\n}",
  "sourcePath": "C:/Users/Lenovo/OneDrive/Dokumentai/IT/Others/Blockchain/decentralized-exchange/contracts/Dex.sol",
  "compiler": {
    "name": "solc",
    "version": "0.8.5+commit.a4f2e591.Emscripten.clang"
  },
  "schemaVersion": "3.4.1",
  "updatedAt": "2021-06-22T10:23:54.440Z",
  "networkType": "ethereum",
  "devdoc": {
    "kind": "dev",
    "methods": {
      "owner()": {
        "details": "Returns the address of the current owner."
      },
      "renounceOwnership()": {
        "details": "Leaves the contract without owner. It will not be possible to call `onlyOwner` functions anymore. Can only be called by the current owner. NOTE: Renouncing ownership will leave the contract without an owner, thereby removing any functionality that is only available to the owner."
      },
      "transferOwnership(address)": {
        "details": "Transfers ownership of the contract to a new account (`newOwner`). Can only be called by the current owner."
      }
    },
    "version": 1
  },
  "userdoc": {
    "kind": "user",
    "methods": {},
    "version": 1
  }
}