{
  "contractName": "Wallet",
  "abi": [
    {
      "anonymous": false,
      "inputs": [
        {
          "indexed": true,
          "internalType": "address",
          "name": "previousOwner",
          "type": "address"
        },
        {
          "indexed": true,
          "internalType": "address",
          "name": "newOwner",
          "type": "address"
        }
      ],
      "name": "OwnershipTransferred",
      "type": "event"
    },
    {
      "inputs": [
        {
          "internalType": "address",
          "name": "",
          "type": "address"
        },
        {
          "internalType": "bytes32",
          "name": "",
          "type": "bytes32"
        }
      ],
      "name": "balances",
      "outputs": [
        {
          "internalType": "uint256",
          "name": "",
          "type": "uint256"
        }
      ],
      "stateMutability": "view",
      "type": "function"
    },
    {
      "inputs": [],
      "name": "owner",
      "outputs": [
        {
          "internalType": "address",
          "name": "",
          "type": "address"
        }
      ],
      "stateMutability": "view",
      "type": "function"
    },
    {
      "inputs": [],
      "name": "renounceOwnership",
      "outputs": [],
      "stateMutability": "nonpayable",
      "type": "function"
    },
    {
      "inputs": [
        {
          "internalType": "uint256",
          "name": "",
          "type": "uint256"
        }
      ],
      "name": "tokenList",
      "outputs": [
        {
          "internalType": "bytes32",
          "name": "",
          "type": "bytes32"
        }
      ],
      "stateMutability": "view",
      "type": "function"
    },
    {
      "inputs": [
        {
          "internalType": "bytes32",
          "name": "",
          "type": "bytes32"
        }
      ],
      "name": "tokenMapping",
      "outputs": [
        {
          "internalType": "bytes32",
          "name": "ticker",
          "type": "bytes32"
        },
        {
          "internalType": "address",
          "name": "tokenAddress",
          "type": "address"
        }
      ],
      "stateMutability": "view",
      "type": "function"
    },
    {
      "inputs": [
        {
          "internalType": "address",
          "name": "newOwner",
          "type": "address"
        }
      ],
      "name": "transferOwnership",
      "outputs": [],
      "stateMutability": "nonpayable",
      "type": "function"
    },
    {
      "inputs": [
        {
          "internalType": "bytes32",
          "name": "_ticker",
          "type": "bytes32"
        },
        {
          "internalType": "address",
          "name": "_tokenAddress",
          "type": "address"
        }
      ],
      "name": "addToken",
      "outputs": [],
      "stateMutability": "nonpayable",
      "type": "function"
    },
    {
      "inputs": [
        {
          "internalType": "uint256",
          "name": "_amount",
          "type": "uint256"
        },
        {
          "internalType": "bytes32",
          "name": "_ticker",
          "type": "bytes32"
        }
      ],
      "name": "deposit",
      "outputs": [],
      "stateMutability": "nonpayable",
      "type": "function"
    },
    {
      "inputs": [
        {
          "internalType": "uint256",
          "name": "_amount",
          "type": "uint256"
        },
        {
          "internalType": "bytes32",
          "name": "_ticker",
          "type": "bytes32"
        }
      ],
      "name": "withdraw",
      "outputs": [],
      "stateMutability": "nonpayable",
      "type": "function"
    },
    {
      "inputs": [],
      "name": "depositEth",
      "outputs": [],
      "stateMutability": "payable",
      "type": "function"
    },
    {
      "inputs": [
        {
          "internalType": "uint256",
          "name": "_amount",
          "type": "uint256"
        }
      ],
      "name": "withdrawEth",
      "outputs": [],
      "stateMutability": "nonpayable",
      "type": "function"
    }
  ],
  "bytecode": "0x608060405234801561001057600080fd5b5060006100216100c460201b60201c565b9050806000806101000a81548173ffffffffffffffffffffffffffffffffffffffff021916908373ffffffffffffffffffffffffffffffffffffffff1602179055508073ffffffffffffffffffffffffffffffffffffffff16600073ffffffffffffffffffffffffffffffffffffffff167f8be0079c531659141344cd1fd0a4f28419497f9722a3daafe3b4186f6b6457e060405160405180910390a3506100cc565b600033905090565b611777806100db6000396000f3fe60806040526004361061009c5760003560e01c80639776aacf116100645780639776aacf146101685780639ead722214610191578063a8d2021a146101ce578063c311d049146101f7578063c9630cb014610220578063f2fde38b146102495761009c565b80631f14df69146100a1578063439370b1146100de578063667cb4ba146100e8578063715018a6146101265780638da5cb5b1461013d575b600080fd5b3480156100ad57600080fd5b506100c860048036038101906100c391906110ee565b610272565b6040516100d591906114a8565b60405180910390f35b6100e6610297565b005b3480156100f457600080fd5b5061010f600480360381019061010a919061115b565b610390565b60405161011d9291906113df565b60405180910390f35b34801561013257600080fd5b5061013b6103d4565b005b34801561014957600080fd5b5061015261050e565b60405161015f9190611349565b60405180910390f35b34801561017457600080fd5b5061018f600480360381019061018a9190611188565b610537565b005b34801561019d57600080fd5b506101b860048036038101906101b391906111c8565b610672565b6040516101c591906113c4565b60405180910390f35b3480156101da57600080fd5b506101f560048036038101906101f091906111f5565b610696565b005b34801561020357600080fd5b5061021e600480360381019061021991906111c8565b610950565b005b34801561022c57600080fd5b50610247600480360381019061024291906111f5565b610c67565b005b34801561025557600080fd5b50610270600480360381019061026b91906110c1565b610e90565b005b6003602052816000526040600020602052806000526040600020600091509150505481565b61031a34600360003373ffffffffffffffffffffffffffffffffffffffff1673ffffffffffffffffffffffffffffffffffffffff16815260200190815260200160002060007f455448000000000000000000000000000000000000000000000000000000000081526020019081526020016000205461103990919063ffffffff16565b600360003373ffffffffffffffffffffffffffffffffffffffff1673ffffffffffffffffffffffffffffffffffffffff16815260200190815260200160002060007f4554480000000000000000000000000000000000000000000000000000000000815260200190815260200160002081905550565b60016020528060005260406000206000915090508060000154908060010160009054906101000a900473ffffffffffffffffffffffffffffffffffffffff16905082565b6103dc61104f565b73ffffffffffffffffffffffffffffffffffffffff166103fa61050e565b73ffffffffffffffffffffffffffffffffffffffff1614610450576040517f08c379a000000000000000000000000000000000000000000000000000000000815260040161044790611468565b60405180910390fd5b600073ffffffffffffffffffffffffffffffffffffffff1660008054906101000a900473ffffffffffffffffffffffffffffffffffffffff1673ffffffffffffffffffffffffffffffffffffffff167f8be0079c531659141344cd1fd0a4f28419497f9722a3daafe3b4186f6b6457e060405160405180910390a360008060006101000a81548173ffffffffffffffffffffffffffffffffffffffff021916908373ffffffffffffffffffffffffffffffffffffffff160217905550565b60008060009054906101000a900473ffffffffffffffffffffffffffffffffffffffff16905090565b61053f61104f565b73ffffffffffffffffffffffffffffffffffffffff1661055d61050e565b73ffffffffffffffffffffffffffffffffffffffff16146105b3576040517f08c379a00000000000000000000000000000000000000000000000000000000081526004016105aa90611468565b60405180910390fd5b60405180604001604052808381526020018273ffffffffffffffffffffffffffffffffffffffff16815250600160008481526020019081526020016000206000820151816000015560208201518160010160006101000a81548173ffffffffffffffffffffffffffffffffffffffff021916908373ffffffffffffffffffffffffffffffffffffffff16021790555090505060028290806001815401808255809150506001900390600052602060002001600090919091909150555050565b6002818154811061068257600080fd5b906000526020600020016000915090505481565b80600073ffffffffffffffffffffffffffffffffffffffff166001600083815260200190815260200160002060010160009054906101000a900473ffffffffffffffffffffffffffffffffffffffff1673ffffffffffffffffffffffffffffffffffffffff16141561073d576040517f08c379a000000000000000000000000000000000000000000000000000000000815260040161073490611448565b60405180910390fd5b82600360003373ffffffffffffffffffffffffffffffffffffffff1673ffffffffffffffffffffffffffffffffffffffff16815260200190815260200160002060008481526020019081526020016000205410156107d0576040517f08c379a00000000000000000000000000000000000000000000000000000000081526004016107c790611488565b60405180910390fd5b61083383600360003373ffffffffffffffffffffffffffffffffffffffff1673ffffffffffffffffffffffffffffffffffffffff16815260200190815260200160002060008581526020019081526020016000205461105790919063ffffffff16565b600360003373ffffffffffffffffffffffffffffffffffffffff1673ffffffffffffffffffffffffffffffffffffffff1681526020019081526020016000206000848152602001908152602001600020819055506001600083815260200190815260200160002060010160009054906101000a900473ffffffffffffffffffffffffffffffffffffffff1673ffffffffffffffffffffffffffffffffffffffff1663a9059cbb33856040518363ffffffff1660e01b81526004016108f892919061139b565b602060405180830381600087803b15801561091257600080fd5b505af1158015610926573d6000803e3d6000fd5b505050506040513d601f19601f8201168201806040525081019061094a919061112e565b50505050565b80600360003373ffffffffffffffffffffffffffffffffffffffff1673ffffffffffffffffffffffffffffffffffffffff16815260200190815260200160002060007f45544800000000000000000000000000000000000000000000000000000000008152602001908152602001600020541015610a03576040517f08c379a00000000000000000000000000000000000000000000000000000000081526004016109fa90611428565b60405180910390fd5b610a8681600360003373ffffffffffffffffffffffffffffffffffffffff1673ffffffffffffffffffffffffffffffffffffffff16815260200190815260200160002060007f455448000000000000000000000000000000000000000000000000000000000081526020019081526020016000205461105790919063ffffffff16565b600360003373ffffffffffffffffffffffffffffffffffffffff1673ffffffffffffffffffffffffffffffffffffffff16815260200190815260200160002060007f455448000000000000000000000000000000000000000000000000000000000081526020019081526020016000208190555060003373ffffffffffffffffffffffffffffffffffffffff1682604051610b2090611334565b60006040518083038185875af1925050503d8060008114610b5d576040519150601f19603f3d011682016040523d82523d6000602084013e610b62565b606091505b5050905080610c6357610bee82600360003373ffffffffffffffffffffffffffffffffffffffff1673ffffffffffffffffffffffffffffffffffffffff16815260200190815260200160002060007f455448000000000000000000000000000000000000000000000000000000000081526020019081526020016000205461103990919063ffffffff16565b600360003373ffffffffffffffffffffffffffffffffffffffff1673ffffffffffffffffffffffffffffffffffffffff16815260200190815260200160002060007f45544800000000000000000000000000000000000000000000000000000000008152602001908152602001600020819055505b5050565b80600073ffffffffffffffffffffffffffffffffffffffff166001600083815260200190815260200160002060010160009054906101000a900473ffffffffffffffffffffffffffffffffffffffff1673ffffffffffffffffffffffffffffffffffffffff161415610d0e576040517f08c379a0000000000000000000000000000000000000000000000000000000008152600401610d0590611448565b60405180910390fd5b6001600083815260200190815260200160002060010160009054906101000a900473ffffffffffffffffffffffffffffffffffffffff1673ffffffffffffffffffffffffffffffffffffffff166323b872dd3330866040518463ffffffff1660e01b8152600401610d8193929190611364565b602060405180830381600087803b158015610d9b57600080fd5b505af1158015610daf573d6000803e3d6000fd5b505050506040513d601f19601f82011682018060405250810190610dd3919061112e565b50610e3783600360003373ffffffffffffffffffffffffffffffffffffffff1673ffffffffffffffffffffffffffffffffffffffff16815260200190815260200160002060008581526020019081526020016000205461103990919063ffffffff16565b600360003373ffffffffffffffffffffffffffffffffffffffff1673ffffffffffffffffffffffffffffffffffffffff168152602001908152602001600020600084815260200190815260200160002081905550505050565b610e9861104f565b73ffffffffffffffffffffffffffffffffffffffff16610eb661050e565b73ffffffffffffffffffffffffffffffffffffffff1614610f0c576040517f08c379a0000000000000000000000000000000000000000000000000000000008152600401610f0390611468565b60405180910390fd5b600073ffffffffffffffffffffffffffffffffffffffff168173ffffffffffffffffffffffffffffffffffffffff161415610f7c576040517f08c379a0000000000000000000000000000000000000000000000000000000008152600401610f7390611408565b60405180910390fd5b8073ffffffffffffffffffffffffffffffffffffffff1660008054906101000a900473ffffffffffffffffffffffffffffffffffffffff1673ffffffffffffffffffffffffffffffffffffffff167f8be0079c531659141344cd1fd0a4f28419497f9722a3daafe3b4186f6b6457e060405160405180910390a3806000806101000a81548173ffffffffffffffffffffffffffffffffffffffff021916908373ffffffffffffffffffffffffffffffffffffffff16021790555050565b6000818361104791906114df565b905092915050565b600033905090565b600081836110659190611535565b905092915050565b60008135905061107c816116e5565b92915050565b600081519050611091816116fc565b92915050565b6000813590506110a681611713565b92915050565b6000813590506110bb8161172a565b92915050565b6000602082840312156110d7576110d66115ea565b5b60006110e58482850161106d565b91505092915050565b60008060408385031215611105576111046115ea565b5b60006111138582860161106d565b925050602061112485828601611097565b9150509250929050565b600060208284031215611144576111436115ea565b5b600061115284828501611082565b91505092915050565b600060208284031215611171576111706115ea565b5b600061117f84828501611097565b91505092915050565b6000806040838503121561119f5761119e6115ea565b5b60006111ad85828601611097565b92505060206111be8582860161106d565b9150509250929050565b6000602082840312156111de576111dd6115ea565b5b60006111ec848285016110ac565b91505092915050565b6000806040838503121561120c5761120b6115ea565b5b600061121a858286016110ac565b925050602061122b85828601611097565b9150509250929050565b61123e81611569565b82525050565b61124d81611587565b82525050565b60006112606026836114ce565b915061126b826115ef565b604082019050919050565b60006112836012836114ce565b915061128e8261163e565b602082019050919050565b60006112a66014836114ce565b91506112b182611667565b602082019050919050565b60006112c96020836114ce565b91506112d482611690565b602082019050919050565b60006112ec6016836114ce565b91506112f7826116b9565b602082019050919050565b600061130f6000836114c3565b915061131a826116e2565b600082019050919050565b61132e816115b1565b82525050565b600061133f82611302565b9150819050919050565b600060208201905061135e6000830184611235565b92915050565b60006060820190506113796000830186611235565b6113866020830185611235565b6113936040830184611325565b949350505050565b60006040820190506113b06000830185611235565b6113bd6020830184611325565b9392505050565b60006020820190506113d96000830184611244565b92915050565b60006040820190506113f46000830185611244565b6114016020830184611235565b9392505050565b6000602082019050818103600083015261142181611253565b9050919050565b6000602082019050818103600083015261144181611276565b9050919050565b6000602082019050818103600083015261146181611299565b9050919050565b60006020820190508181036000830152611481816112bc565b9050919050565b600060208201905081810360008301526114a1816112df565b9050919050565b60006020820190506114bd6000830184611325565b92915050565b600081905092915050565b600082825260208201905092915050565b60006114ea826115b1565b91506114f5836115b1565b9250827fffffffffffffffffffffffffffffffffffffffffffffffffffffffffffffffff0382111561152a576115296115bb565b5b828201905092915050565b6000611540826115b1565b915061154b836115b1565b92508282101561155e5761155d6115bb565b5b828203905092915050565b600061157482611591565b9050919050565b60008115159050919050565b6000819050919050565b600073ffffffffffffffffffffffffffffffffffffffff82169050919050565b6000819050919050565b7f4e487b7100000000000000000000000000000000000000000000000000000000600052601160045260246000fd5b600080fd5b7f4f776e61626c653a206e6577206f776e657220697320746865207a65726f206160008201527f6464726573730000000000000000000000000000000000000000000000000000602082015250565b7f496e7375666669656e742062616c616e63650000000000000000000000000000600082015250565b7f546f6b656e20646f6573206e6f74206578697374000000000000000000000000600082015250565b7f4f776e61626c653a2063616c6c6572206973206e6f7420746865206f776e6572600082015250565b7f42616c616e6365206e6f742073756666696369656e7400000000000000000000600082015250565b50565b6116ee81611569565b81146116f957600080fd5b50565b6117058161157b565b811461171057600080fd5b50565b61171c81611587565b811461172757600080fd5b50565b611733816115b1565b811461173e57600080fd5b5056fea2646970667358221220d8fecab0be2f43a7ce5d33ec9ba02488f703ed9b585b826ce451f580c69511d464736f6c63430008050033",
  "immutableReferences": {},
  "source": "// SPDX-License-Identifier: MIT\r\npragma solidity ^0.8.0;\r\n\r\nimport \"../node_modules/@openzeppelin/contracts/token/ERC20/IERC20.sol\";\r\nimport \"../node_modules/@openzeppelin/contracts/utils/math/SafeMath.sol\";\r\nimport \"../node_modules/@openzeppelin/contracts/access/Ownable.sol\";\r\n\r\ncontract Wallet is Ownable {\r\n    using SafeMath for uint256;\r\n\r\n    struct Token {\r\n        bytes32 ticker;\r\n        address tokenAddress;\r\n    }\r\n\r\n    mapping(bytes32 => Token) public tokenMapping;\r\n    bytes32[] public tokenList;\r\n    mapping(address => mapping(bytes32 => uint256)) public balances;\r\n\r\n    modifier tokenExist(bytes32 _ticker) {\r\n        require(tokenMapping[_ticker].tokenAddress != address(0), \"Token does not exist\");\r\n        _;\r\n    }\r\n\r\n    function addToken(bytes32 _ticker, address _tokenAddress) external onlyOwner {\r\n        tokenMapping[_ticker] = Token(_ticker, _tokenAddress);\r\n        tokenList.push(_ticker);\r\n    }\r\n\r\n    function deposit(uint _amount, bytes32 _ticker) external tokenExist(_ticker) {\r\n        IERC20(tokenMapping[_ticker].tokenAddress).transferFrom(msg.sender, address(this), _amount);\r\n        balances[msg.sender][_ticker] = balances[msg.sender][_ticker].add(_amount);\r\n    }\r\n\r\n    function withdraw(uint _amount, bytes32 _ticker) external tokenExist(_ticker) {\r\n        require(balances[msg.sender][_ticker] >= _amount, \"Balance not sufficient\");\r\n\r\n        balances[msg.sender][_ticker] = balances[msg.sender][_ticker].sub(_amount);\r\n        IERC20(tokenMapping[_ticker].tokenAddress).transfer(msg.sender, _amount);\r\n    }\r\n\r\n\tfunction depositEth() payable external {\r\n        balances[msg.sender][bytes32(\"ETH\")] = balances[msg.sender][bytes32(\"ETH\")].add(msg.value);\r\n    }\r\n    \r\n    function withdrawEth(uint _amount) external {\r\n        require(balances[msg.sender][bytes32(\"ETH\")] >= _amount, \"Insuffient balance\"); \r\n        balances[msg.sender][bytes32(\"ETH\")] = balances[msg.sender][bytes32(\"ETH\")].sub(_amount);\r\n        (bool success, ) = payable(msg.sender).call{value: _amount}(\"\");\r\n\r\n\t\tif (!success) {\r\n\t\t\tbalances[msg.sender][bytes32(\"ETH\")] = balances[msg.sender][bytes32(\"ETH\")].add(_amount);\r\n\t\t}\r\n    }\r\n}",
  "sourcePath": "C:\\Users\\Lenovo\\OneDrive\\Dokumentai\\IT\\Others\\Blockchain\\decentralized-exchange\\contracts\\Wallet.sol",
  "compiler": {
    "name": "solc",
    "version": "0.8.5+commit.a4f2e591.Emscripten.clang"
  },
  "schemaVersion": "3.4.1",
  "updatedAt": "2021-06-22T10:23:50.112Z",
  "devdoc": {
    "kind": "dev",
    "methods": {
      "owner()": {
        "details": "Returns the address of the current owner."
      },
      "renounceOwnership()": {
        "details": "Leaves the contract without owner. It will not be possible to call `onlyOwner` functions anymore. Can only be called by the current owner. NOTE: Renouncing ownership will leave the contract without an owner, thereby removing any functionality that is only available to the owner."
      },
      "transferOwnership(address)": {
        "details": "Transfers ownership of the contract to a new account (`newOwner`). Can only be called by the current owner."
      }
    },
    "version": 1
  },
  "userdoc": {
    "kind": "user",
    "methods": {},
    "version": 1
  }
}